:10000000FE2F00308A000408840A820700343E3440
:100010004134413441343E34003442347F3440343E
:10002000003472344934493449344634213441343B
:1000300049344D3433341834143412347F3410348A
:10004000273445344534453439343C344A34493412
:1000500049343134413421341134093407343634CD
:1000600049344934493436344634493449342934DE
:100070001E34FF34FF34FF34FF34FF347F34083440
:10008000083408347F34263449344934493432340E
:100090007C3408340434043478343C344034403400
:1000A00020347C344434643454344C3444343E344A
:1000B0004134413441343E34003442347F3440349E
:1000C000003472344934493449344634213441349B
:1000D00049344D3433341834143412347F341034EA
:1000E000273445344534453439343C344A34493472
:1000F000493431344134213411340934073436342D
:10010000493449344934363446344934493429343D
:100110001E34FF34FF34FF34FF34FF347F3408349F
:10012000083408347F34263449344934493432346D
:100130007C3408340434043478343C34403440345F
:0E01400020347C344434643454344C3444341D
:1001C200F30083120313861106127308412183126E
:1001D200031306160800F300831203138615061292
:1001E200730841218312031306160800F300F2017B
:1001F200731CFF287008F1007108F2070310F00D5C
:100202000310F30C7308031DF92872080800F700A5
:100212002A30E1200030EC207708EC200030EC207E
:100222007508EC202B30E1200030EC207408EC2023
:100232000030EC207608EC202C30E1200800F4019C
:10024200F501701C2A297208F4070318F50A7308CD
:10025200F50701300310F20DF30DFF3E031D2B29AC
:1002620001300310F10CF00CFF3E031D322970081F
:100272007104031D22297508F1007408F0000800BA
:10028200F1008312031386140614F201083072027D
:100292000318080006107108F0007203FF3A073EC7
:1002A200013E55290310F00CFF3E031D5329701C1B
:1002B2005E298312031386146129831203138610A5
:1002C20006140130F0007008F20747298312031365
:1002D20023082204210420040319AC29A901A90A34
:1002E200A31B81290130A8000310A00DA10DA20DAE
:1002F200A30DA80B75290130A8002808A9077129A8
:1003020023082702031D8F2922082602031D8F2995
:1003120021082502031D8F2920082402031C9F297E
:100322002008A4022108031C210FA5022208031C95
:10033200220FA6022308031C230FA7020130031079
:10034200A30CA20CA10CA00CFF3E031DA02901309E
:10035200A902031D81292708A3002608A200250857
:10036200A1002408A000080083120313A800780843
:10037200A0002008F4007908A1002108F5007A08FD
:10038200A2002208F6002808082178088312031325
:10039200A000A101A009A109A00A0319A10A7A08D3
:1003A2002007A20021080318210AA3002208013E07
:1003B200F00023080318013E003EF1002808A400C3
:1003C200A501A409A509A40A0319A50A7908240705
:1003D200A60025080318250AA7002608013EF200F8
:1003E20027080318013E003EF30020217108831202
:1003F2000313AA007008A90029082A040319080097
:10040200861506127C0841217B08412183120313C1
:1004120006160130A9020030031CAA03AA02FD2914
:100422000030FC000030FB000030FA000030F90020
:1004320073087204710470040319662AFD01FD0A2F
:10044200F31B312A0130F8000310F00DF10DF20D0B
:10045200F30DF80B252A0130F8007808FD07212A50
:100462000130F8000310F90DFA0DFB0DFC0DF80B2D
:10047200332A73087702031D482A72087602031D85
:10048200482A71087502031D482A70087402031C69
:10049200592A7008F4027108031C710FF5027208E0
:1004A200031C720FF6027308031C730FF702791410
:1004B20001300310F30CF20CF10CF00CFF3E031DA3
:1004C2005A2A0130FD02031D312A7C08F3007B0801
:1004D200F2007A08F1007908F00008008312031391
:1004E200BA00BC0106303C020318080005303C0685
:1004F200031D7D2AB9018C2A0530B0003008F000B6
:100502002C08F720831203133C07013E84000120CC
:10051200B1003108B900BB0108303B020318D72AE9
:10052200391CCB2A2F08B0003008F0003B08F72016
:10053200831203132B07B1003108F8002F08B20011
:100542003208F0003C08F720831203133A07B30085
:100552002F083307B4003408F9002F08B500350816
:10056200F0003B08F720831203132B07B6002F0875
:100572003607B7003708FA002E08FC002D08FB00EA
:100582002F08B8003808F0003C08F7208312031344
:100592003A07B521031083120313B90C0130B000DE
:1005A2003008BB0708303B02031C912A0130B0001F
:1005B2003008BC07732A8312031306150530F600B0
:1005C2000F30F500F130F400F40BE52AF50BE52AC3
:1005D200F60BE52A8312031306113430F500F130CD
:1005E200F400F40BF22AF50BF22AF72A8312031312
:1005F20006153430F500F130F400F40BFE2AF50B49
:10060200FE2A032B0130E1200530F6000F30F50001
:10061200F130F400F40B0B2BF50B0B2BF60B0B2B21
:100622001130E1200530F6000F30F500F130F40012
:10063200F40B192BF50B192BF60B192B3A30E12081
:100642000530EC203630E1206030EC202D30E12006
:100652000030EC20F701F70A2030770203183D2B17
:100662007708F4007407EC200130F4007408F707EF
:1006720020307702031C312BF70140307702031838
:100682004C2B7708EC200130F4007408F707403057
:100692007702031C422B0030EC20F701F70A2030CE
:1006A20077020318602B7708F4007407EC200130FE
:1006B200F4007408F70720307702031C542B133020
:1006C200E1202930E12008000730831203139F0044
:1006D200831603138601F4308500F8308100203040
:1006E2008312031390000B3097009C309600403029
:1006F20095008614061406160615DC22F8019F30B2
:1007020083120313BD003D08F9003F30BE003E08CE
:10071200FA00FF30FB00FF30FC000030B521403012
:1007220083120313BD003D08F8009F30BE003E084F
:10073200F9007F30BF003F08FA00E030FB000730CD
:10074200FC000030B521683083120313BD003D0860
:10075200AB000C30BE003E08AC000030AD00F830FB
:10076200AE000230BF003F08AF0087306F22283052
:1007720083120313BD003D08AB000B30BE003E08E0
:10078200AC001F30AD000030AE000230BF003F08A9
:10079200AF0077306F22283083120313BD003D086B
:1007A200AB000F30BE003E08AC001F30AD00003081
:1007B200AE000230BF003F08AF0087306F228312C5
:1007C2000313C401C101C2011930BD003D08C300B9
:1007D2008E018F0181010B11101443080319002CA3
:1007E2000B1DFA2B0130C1070318C20A0030C207E1
:1007F2000B110C1DEE2B0C110130C302EE2B10104D
:100802004108BD004208BE00BF01C001083003100C
:10081200BD0DBE0DBF0DC00DFF3E031D082C01080E
:100822003D07CE003E0803183E0F0310CF003F08DD
:1008320003183F0F0310D00040080318400AD100EC
:100842000030F3000F30F2004230F1004030F0008F
:100852005108F7005008F6004F08F5004E08F40062
:100862001122700883120313BD003D08CB00003033
:10087200A3000030A2000030A1000A30A000003026
:10088200F3000130F2008630F100A030F000510890
:10089200F7005008F6004F08F5004E08F400112248
:1008A200730883120313A7007208A6007108A5003B
:1008B2007008A4006721831203132008BD003D08BD
:1008C200CA000030A3000030A2000030A1000A30AC
:1008D200A0000030F3000030F2002730F1001030A9
:1008E200F0005108F7005008F6004F08F5004E08D6
:1008F200F4001122730883120313A7007208A600E2
:100902007108A5007008A400672183120313200850
:10091200BD003D08C9000030A3000030A200003035
:10092200A1000A30A0000030F3000030F2000330D2
:10093200F100E830F0005108F7005008F6004F08C7
:10094200F5004E08F4001122730883120313A70066
:100952007208A6007108A5007008A400672183121E
:1009620003132008BD003D08C8000030A30000307A
:10097200A2000030A1000A30A0000030F3000030D5
:10098200F2000030F1006430F0005108F700500826
:10099200F6004F08F5004E08F40011227308831286
:1009A2000313A7007208A6007108A5007008A4002E
:1009B2006721831203132008BD003D08C7000030E1
:1009C200A3000030A2000030A1000A30A0000030D5
:1009D200F3000030F2000030F1000A30F00051085C
:1009E200F7005008F6004F08F5004E08F4001122F7
:1009F200730883120313A7007208A6007108A500EA
:100A02007008A4006721831203132008BD003D086B
:100A1200C6000030A3000030A2000030A1000A305E
:100A2200A0005108A7005008A6004F08A5004E08D4
:100A3200A4006721831203132008BD003D08C500EE
:100A42000630BD003D08CD004D080319A62D4D0806
:100A5200453E840083130008031D532D4408031DE3
:100A6200532D1430BD003D08F0004D08F720FF3A29
:100A7200013E873E83120313BE003E08CC000A30BB
:100A8200BD003D08AB000A30BE003E08AC00FF309E
:100A9200AD00FF30AE000330BF003F08AF004C088E
:100AA2006F229F2D143083120313BD003D08F00006
:100AB2004D08F720FF3A013E873E83120313BE0022
:100AC2003E08CC000A30BD003D08AB000A30BE0033
:100AD2003E08AC00FF30AD00FF30AE000330BF0077
:100AE2003F08AF004C086F22143083120313BD007D
:100AF2003D08F0004D08F720FF3A013E873E831281
:100B02000313BE003E08CC000A30BD003D08AB0016
:100B12004D08453E840083130008BE003E08AC0029
:100B22000030AD00F830AE000330BF003F08AF0028
:100B32004C086F2283120313C401C40A01308312CA
:100B42000313CD024D08031D282D0A30BD003D08B8
:100B5200AB000A30BE003E08AC00FF30AD00FF30F3
:100B6200AE000330BF003F08AF0087306F220A306B
:100B720083120313BD003D08AB004508BE003E08CA
:100B8200AC000030AD00F830AE000330BF003F08CB
:100B9200AF0087306F2283120313C4016830BD0097
:100BA2003D08AB000A30BE003E08AC00E030AD00AC
:100BB2000730AE000230BF003F08AF0077306F222F
:100BC200831203135108031D142E5008031D142E03
:100BD20003304F02031DF12DE8304E02031DF12DAB
:100BE2000318142E5108F3005008F2004F08F100C8
:100BF2004E08F0000030F7000F30F6004230F500EA
:100C02004030F4001122730883120313D1007208DA
:100C1200D0007108CF007008CE006830BD003D08DA
:100C2200AB000E30362E831203135108F300500826
:100C3200F2004F08F1004E08F0003B30F7009A3006
:100C4200F600CA30F5000030F40011227308831256
:100C52000313D1007208D0007108CF007008CE00D3
:100C62006830BD003D08AB000D30BE003E08AC0050
:100C72000030AD00F830AE000230BF003F08AF00D8
:100C820077306F220030F3000F30F2004230F10073
:100C92004030F000831203135108F7005008F600A9
:100CA2004F08F5004E08F400112270088312031356
:100CB200BD003D08CB000030A3000030A200003090
:100CC200A1000A30A0000030F3000130F2008630AB
:100CD200F100A030F0005108F7005008F6004F086C
:100CE200F5004E08F4001122730883120313A700C3
:100CF2007208A6007108A5007008A400672183127B
:100D020003132008BD003D08CA000030A3000030D4
:100D1200A2000030A1000A30A0000030F300003031
:100D2200F2002730F1001030F0005108F7005008AF
:100D3200F6004F08F5004E08F400112273088312E2
:100D42000313A7007208A6007108A5007008A4008A
:100D52006721831203132008BD003D08C90000303B
:100D6200A3000030A2000030A1000A30A000003031
:100D7200F3000030F2000330F100E830F0005108D7
:100D8200F7005008F6004F08F5004E08F400112253
:100D9200730883120313A7007208A6007108A50046
:100DA2007008A4006721831203132008BD003D08C8
:100DB200C8000030A3000030A2000030A1000A30B9
:100DC200A0000030F3000030F2000030F100643087
:100DD200F0005108F7005008F6004F08F5004E08E1
:100DE200F4001122730883120313A7007208A600ED
:100DF2007108A5007008A40067218312031320085C
:100E0200BD003D08C7000030A3000030A200003042
:100E1200A1000A30A0000030F3000030F2000030E0
:100E2200F1000A30F0005108F7005008F6004F08B0
:100E3200F5004E08F4001122730883120313A70071
:100E42007208A6007108A5007008A4006721831229
:100E520003132008BD003D08C6000030A300003087
:100E6200A2000030A1000A30A0005108A7005008DB
:100E7200A6004F08A5004E08A400672183120313A1
:100E82002008BD003D08C5000630BD003D08CD006C
:100E92004D080319C92F4D08453E840083130008ED
:100EA200031D772F4408031D772F1430BD003D0822
:100EB200F0004D08F720FF3A013E873E83120313EC
:100EC200BE003E08CC004A30BD003D08AB000A30EF
:100ED200BE003E08AC00E030AD000730AE0003308B
:100EE200BF003F08AF004C086F22C22F143083129C
:100EF2000313BD003D08F0004D08F720FF3A013E04
:100F0200873E83120313BE003E08CC004A30BD0068
:100F12003D08AB000A30BE003E08AC00E030AD0038
:100F22000730AE000330BF003F08AF004C086F220D
:100F3200143083120313BD003D08F0004D08F72062
:100F4200FF3A013E873E83120313BE003E08CC00E7
:100F52004A30BD003D08AB004D08453E8400831376
:100F62000008BE003E08AC000030AD00AE00033009
:100F7200BF003F08AF004C086F2283120313C40165
:100F8200C40A013083120313CD024D08031D4C2FF6
:100F92004A30BD003D08AB000A30BE003E08AC003E
:100FA200E030AD000730AE000330BF003F08AF00B5
:100FB20087306F224A3083120313BD003D08AB0015
:100FC2004508BE003E08AC000030AD00AE00033064
:100FD200BF003F08AF0087306F222930831203130E
:100FE200BF009630BE007E30BD00BD0BF62FBE0B9B
:0E0FF200F62FBF0BF62FFD2FE02B8301652B92
:02400E000AFFA7
:00000001FF
